S01100002E2E2F50726F746575732E73313966
S32D0000C000000000205DC2000011C3000017C300001DC3000023C3000029C3000000000000000000000000000073
S32D0000C028000000002FC3000035C30000000000003BC3000041C3000085D9000091D900009DD90000A9D900003E
S32D0000C050B5D90000C1D90000CDD90000D9D90000E5D90000F1D90000FDD9000009DA000015DA000021DA000017
S32D0000C0782DDA000039DA000045DA000051DA00005DDA000069DA000075DA000081DA00008DDA000099DA000038
S32D0000C0A0A5DA0000B1DA0000BDDA0000C9DA0000D5DA0000E1DA0000EDDA0000F9DA000005DB000011DB00005E
S32D0000C0C81DDB000029DB000035DB000041DB00004DDB000059DB000065DB000071DB00007DDB000089DB00007E
S32D0000C0F095DB000085300100A1DB0000ADDB0000B9DB0000C5DB0000D1DB0000DDDB0000E9DB0000F5DB0000CC
S32D0000C11801DC00000DDC000019DC000025DC000031DC00003DDC000049DC000055DC000061DC00006DDC00003B
S32D0000C14079DC000085DC000091DC00009DDC0000A1070100A9DC0000B5DC0000C1DC0000CDDC0000D9DC00007B
S32D0000C168E5DC0000F1DC0000FDDC000009DD000015DD000021DD00002DDD000039DD000045DD000051DD0000FC
S32D0000C1905DDD000069DD000075DD0000950301005D020100F902010009D700003504010081DD00008DDD0000D8
S32D0000C1B899DD00001CC0010000000020C81600001CC001000000FF1F00000000C8160020AC0400000000FF1F41
S32D0000C1E00000000080B489B000AFF860B9607A60BB68FB61FB68BB6100237B617A697B689A420BD2BA69131DFB
S32D0000C208BB61FB69191DF96112681A607B6904337B61EFE700BF2437BD4680BC704780B485B000AF786039609E
S32D0000C2307B68FB600023BB60BA683B689A4208D2FB681A1DFA6000221A60BB680433BB60F2E700BF1437BD46FE
S32D0000C25880BC704780B586B000AF72B6234B4CF220521A80214B4DF628121A80204B4FF4E9721A801F4B7B615F
S32D0000C2807B691F4A934214D27B691A1D7A611B683B617B691A1D7A611B68FB607B691A1D7A611B68BB60BA68E9
S32D0000C2A8F9683869FFF79AFFE6E77B69134A93420ED27B691A1D7A611B68FB607B691A1D7A611B68BB60B9688B
S32D0000C2D0F868FFF7A8FFECE70B4B7B600B4A7B681A6008F0DBFF62B601F0D6FA00F094FAFEE700BF0E2005404D
S32D0000C2F800200540BCC10000D4C10000E4C1000008ED00E000C0000080B400AFFEE780B400AFFEE780B400AFF4
S32D0000C320FEE780B400AFFEE780B400AFFEE780B400AFFEE780B400AFFEE780B400AFFEE780B400AFFEE780B426
S32D0000C34800AFFEE7FFFFFFFFFFFFFFFFFFFFFFFFFFFFFFFFFFFFFFFFFFFFFFFFFFFFFFFFFFFFFFFFFFFFFFFF57
S32D0000C370FFFFFFFFFFFFFFFFFFFFFFFFFFFFFFFFFFFFFFFFFFFFFFFFFFFFFFFFFFFFFFFFFFFFFFFFFFFFFFFFC7
S32D0000C398FFFFFFFFFFFFFFFFFFFFFFFFFFFFFFFFFFFFFFFFFFFFFFFFFFFFFFFFFFFFFFFFFFFFFFFFFFFFFFFF9F
S32D0000C3C0FFFFFFFFFFFFFFFFFFFFFFFFFFFFFFFFFFFFFFFFFFFFFFFFFFFFFFFFFFFFFFFFFFFFFFFFFFFFFFFF77
S32D0000C3E8FFFFFFFFFFFFFFFFFFFFFFFFFFFFFFFFFFFFFFFFFFFFFFFFFFFFFFFFFFFFFFFFFFFFFFFFFEFFFFFF50
S32D0000C44010B5054C237833B9044B13B10448AFF300800123237010BDC81600200000000010C4000008B5034B4F
S32D0000C4681BB103490348AFF3008008BD00000000CC16002010C4000080B582B000AF01F07BF800F025FC786023
S32D0000C4902E4A0121232000F04FFA4FF000002C4903F0C4FB3221192000F0DEFA294A0121282000F041FA5A212B
S32D0000C4B8192000F0D5FA0121282000F04BFC4FF081420021192000F033FAAF21192000F063FB192000F0DCFDEB
S32D0000C4E00A21192000F05CFB4FF00000184903F09DFB01F08FF84FF00000174903F096FB0A21192000F0B0FABF
S32D0000C5084FF00000104903F08DFB0021192000F021FC104A0121192000F00AFA5A21192000F09EFA01F0BEF8FF
S32D0000C5300121192000F0D4FC4FF000004FF0804103F074FB00BF0837BD4680BD000058410000E03F0000C84122
S32D0000C5580000F03F0000104180B500AF4FF07F520121192000F0E4F94FF00000174903F059FB1749174804F080
S32D0000C58013FB1749174804F00FFB1749174804F00BFB1549114804F007FB0F49114804F003FB1421192000F05B
S32D0000C5A85FFA11490B4804F0FBFA104A0121192000F0BEF91921192000F052FA4FF000004FF0804103F02EFB10
S32D0000C5D000BF80BD000014400000A0421417002000000C43081700200000C842FC16002000008C4200004040A8
S32D0000C5F880B500AF2649274804F0D2FA4FF00000254903F00FFB2549254804F0C9FA4FF00000214903F006FBBA
S32D0000C6202249234804F0C0FA4FF00000214903F0FDFA21491E4804F0B7FA4FF000004FF0804103F0F3FA1D4ADA
S32D0000C6480021192000F074F94FF000001A4903F0E9FA1A49144804F0A3FA164A0121192000F066F94FF00000FC
S32D0000C670154903F0DBFA4FF000010B4804F094FA0A490B4804F090FA4FF000000E4903F0CDFA00BF80BD00BF32
S32D0000C6980000FA42FC1600200000E03F0000B4421417002000008C4208170020000010400000F0420000A04037
S32D0000C6C000001C40000034430000F03F80B500AF2D21192000F064FA0021192000F000FC4FF07E5200212820D3
S32D0000C6E800F026F92D21192000F056FA044A0121282000F01DF9034800F00EFD00BF80BD000040400000A040EE
S32D0000C71080B500AF104A0021282000F00DF98721192000F0A1F90121282000F017FB0B4A0021282000F000F9E0
S32D0000C7385A21192000F094F9074A0121192000F0F7F84FF00000054903F06CFA00BF80BD000020410000404153
S32D0000C760000070410000104080B500AF4FF000004FF0804103F05AFA5A21192000F010FA4FF00000214903F0F6
S32D0000C78851FA0121282000F0E5FA4FF000001D4903F048FA1C4A0021192000F0C9F84FF00000184903F03EFAE9
S32D0000C7B05A21192000F0F4F94FF00000134903F035FA0121282000F0C9FA4FF000000F4903F02CFA4FF082423D
S32D0000C7D80021192000F0ACF84FF00000094903F021FA00F01FFF084A0121192000F0A0F800F044FF054A0021C0
S32D0000C800282000F099F800BF80BD00BF0000F03F000040400000C84180B500AF084807F037F8FFF72DFEFFF75D
S32D0000C8289BFEFFF74FFFFFF7E3FEFFF76DFFFFF797FF0023184680BD841A002080B582B000AF786039607B685A
S32D0000C850012B42D13B684FF6FF7293423DD1214A0221214801F0A0FA1E4A03211F4801F09BFA01211E4803F0C9
S32D0000C8787BFB1D211D4803F077FB00211C4804F039F905211B4804F035F907211A4804F031F90021194803F0A1
S32D0000C8A039FE0A21184803F035FE0921174803F031FE0821164803F02DFE1021154803F0F7F91321144803F03E
S32D0000C8C8F3F91121134803F0EFF91221124803F0EBF900BF0837BD4680BD00BF00001041E4160020EC16002000
S32D0000C8F0F4160020F8160020FC16002008170020141700202017002024170020281700202C170020301700202B
S32D0000C91834170020381700203C17002080B500AF4FF6FF710120FFF789FF80BD00000000F0B585B000AFF8604E
S32D0000C9400B467A60FB72444803F0D2FD434803F0CFFD786807F0A2FC3BA3D3E9002307F0F5FC02460B46104690
S32D0000C968194639A3D3E9002307F016FE02460B461046194607F0C8FF03467B60FB7A012B14D1FB685B42184668
S32D0000C99008F0C8F803461946314801F085FAFB685B42184608F0BEF8034619462D4801F07BFA12E0FB7A002B0F
S32D0000C9B80FD1F86808F0B2F803461946264801F06FFAF86808F0AAF803461946234801F067FA204803F076FDD2
S32D0000C9E004461D4803F072FD03462344184607F043FC4FF000024FF0804307F0D1FD02460B4614461D46786896
S32D0000CA0807F048FC02460B4601210E462046294607F00AFF0346002B01D100231E46F3B2002B00D0D5E70C4864
S32D0000CA3001F0F8F90B4801F0F5F900BF1437BD46F0BD00BFAFF300800000000000E07340D221337F7CD922403A
S32D0000CA58F4160020F8160020EC160020E4160020F0B585B000AF78603960474803F03CFD464803F039FD7868D0
S32D0000CA8008F050F803461946434801F00DFA7B685B42184608F046F8034619463F4801F003FA386807F0E8FB72
S32D0000CAA831A3D3E9002307F04DFC02460B46104619462FA3D3E9002307F06EFD02460B461046194607F0D8FEF1
S32D0000CAD00346FB60F86807F0CFFB29A3D3E9002307F034FC02460B461046194626A3D3E9002307F02BFC024645
S32D0000CAF80B461046194607F0BFFE0346FB60234803F0E0FC0446204803F0DCFC03462344184607F0ADFB4FF00F
S32D0000CB2000024FF0804307F03BFD02460B4614461D46F86807F0A0FB02460B4601210E462046294607F074FE1F
S32D0000CB480346002B01D100231E46F3B2002B00D0D5E70F4801F062F90E4801F05FF900BF1437BD46F0BD00BFDB
S32D0000CB700223817C9E8FC14090E7DF12D781AA40F6285C8FC2F5E83F3D0AD7A3703DF23FF4160020F8160020BF
S32D0000CB98EC160020E4160020F0B585B000AF78603960474803F0A0FC464803F09DFC7B685B42184607F0B2FF7B
S32D0000CBC003461946424801F06FF9786807F0AAFF034619463F4801F067F9386807F04CFB31A3D3E9002307F034
S32D0000CBE8B1FB02460B46104619462FA3D3E9002307F0D2FC02460B461046194607F03CFE0346FB60F86807F035
S32D0000CC1033FB29A3D3E9002307F098FB02460B461046194626A3D3E9002307F08FFB02460B461046194607F0D7
S32D0000CC3823FE0346FB60234803F044FC0446204803F040FC03462344184607F011FB4FF000024FF0804307F03F
S32D0000CC609FFC02460B4614461D46F86807F004FB02460B4601210E462046294607F0D8FD0346002B01D1002346
S32D0000CC881E46F3B2002B00D0D5E70F4801F0C6F80E4801F0C3F800BF1437BD46F0BD00BF0223817C9E8FC140ED
S32D0000CCB090E7DF12D781AA40676666666666EA3F9A9999999999F13FF4160020F8160020EC160020E4160020C3
S32D0000CCD880B582B000AF1A4803F02AFC78601949786808F02BF90346002B04D0144803F01FFC7860F3E71449A6
S32D0000CD00144804F03CFD7968124804F0EAFD1249104804F0D3FD786807F0C0FA08A3D3E9002307F0A3FD0346F4
S32D0000CD28002B01D0002300E0012318460837BD4680BD00BFAFF300803D0AD7A3703DF23F201700200000E03FE7
S32D0000CD50CCB501001C1A0020D8B5010080B582B000AF78600B46FB70FB78012B4FD17B685B42184607F0D6FE3D
S32D0000CD7803461946514801F093F87B685B42184607F0CCFE034619464D4801F089F84D4803F066F80346002B28
S32D0000CDA005D14B4803F060F80346002B01D0012300E00023002B76D0444803F055F80346002B07D0424803F040
S32D0000CDC84FF80346002B01D0012300E00023002BDDD13D4803F044F8034683F00103DBB2002B03D0364801F043
S32D0000CDF019F8D0E7354803F037F8034683F00103DBB2002BC7D02F4801F00CF8C3E7786807F088FE0346194684
S32D0000CE182A4801F045F8786807F080FE03461946274801F03DF8294803F01AF80346002B05D1274803F014F88C
S32D0000CE400346002B01D0012300E00023002B2AD0204803F009F80346002B07D01E4803F003F80346002B01D0F3
S32D0000CE68012300E00023002BDDD1194802F0F8FF034683F00103DBB2002B03D0104800F0CDFFD0E7114802F0F1
S32D0000CE90EBFF034683F00103DBB2002BC7D0094800F0C0FFC3E7074800F0BCFF064800F0B9FF4FF00000094950
S32D0000CEB802F0B8FE00BF0837BD4680BDEC160020E41600203017002034170020381700203C1700200000F03F47
S32D0000CEE090B583B000AF78600B46FB70FB78012B14D17B685B42184607F014FE034619465F4800F0D1FF7B680C
S32D0000CF085B42184607F00AFE034619465B4800F0C7FF0FE0786807F001FE03461946564800F0BEFF786807F071
S32D0000CF30F9FD03461946534800F0B6FF524803F0FBFA0346184607F0A9F949A3D3E9002307F078FC0346002B89
S32D0000CF581FD04C4803F0ECFA0346184607F09AF943A3D3E9002307F069FC0346002B10D0454803F0DDFA034609
S32D0000CF80184607F08BF93CA3D3E9002307F05AFC0346002B01D0012300E00023002B58D03A4803F0C9FA03465F
S32D0000CFA8184607F077F901231C4631A3D3E9002307F058FC0346002B01D100231C46E3B2002B03D02C4800F050
S32D0000CFD029FFB3E72C4803F0AFFA0346184607F05DF901231C4622A3D3E9002307F03EFC0346002B01D10023A9
S32D0000CFF81C46E3B2002B03D0204800F00FFF99E7204803F095FA0346184607F043F918A3D3E9002307F026FCB9
S32D0000D0200346002B10D0184803F086FA0346184607F034F90EA3D3E9002307F017FC0346002B01D0012300E00D
S32D0000D0480023002B00D175E700BF0B4800F0E6FE0A4800F0E3FE4FF000000C4902F0E2FD00BF0C37BD4690BD7F
S32D0000D07033333333333303406666666666660240EC160020E41600202C17002024170020281700200000F03FEF
S32D0000D09880B582B000AF78607B685B42184607F03DFD03461946194800F0FAFE7B685B42184607F033FD03462E
S32D0000D0C01946154800F0F0FE144802F0CDFE0346002B15D0114802F0C7FE0346002BF3D10E4802F0C1FE03469E
S32D0000D0E883F00103DBB2002BEAD0094800F096FE064800F093FEE3E7054800F08FFE034800F08CFE00BF083736
S32D0000D110BD4680BDEC160020E416002034170020F0B585B000AF78600023FB60B64803F0DFF9B64803F0DCF99C
S32D0000D138786807F0AFF8AAA3D3E9002307F002F902460B4610461946A7A3D3E9002307F023FA02460B461046B3
S32D0000D160194607F0D5FB03467B60A84803F0AEF90446A54803F0AAF903462344184607F07BF84FF000024FF008
S32D0000D188804307F009FA02460B4614461D46786807F080F802460B4601210E462046294607F042FB0346002B8B
S32D0000D1B001D100231E46F3B2002B00F0C381FB68934A13441946934804F078FBFB68022B00F03581FB68022BF6
S32D0000D1D800F3AC81FB68002B04D0FB68012B00F08880A3E18A498B4800F05AFE88498A4800F056FE894803F003
S32D0000D2009BF90346184607F049F87BA3D3E9002307F018FB0346002B10D0834803F08CF90346184607F03AF81F
S32D0000D22875A3D3E9002307F009FB0346002B01D0012300E00023002B02D00123FB6077E1784803F075F903463C
S32D0000D250184607F023F86AA3D3E9002307F0F2FA0346002B10D0704803F066F90346184607F014F862A3D3E9A8
S32D0000D278002307F0E3FA0346002B01D0012300E00023002B02D00223FB6051E1654803F04FF90346184606F0F1
S32D0000D2A0FDFF01231C4656A3D3E9002307F0DEFA0346002B01D100231C46E3B2002B02D00123FB6038E15748A3
S32D0000D2C803F036F90346184606F0E4FF01231C4647A3D3E9002307F0C5FA0346002B01D100231C46E3B2002B06
S32D0000D2F000F022810223FB601EE14749474800F0D3FD474800F08EFD474803F015F90346184606F0C3FF012302
S32D0000D3181C4639A3D3E9002307F0A4FA0346002B01D100231C46E3B2002B02D00023FB6000E13A4803F0FCF810
S32D0000D3400346184606F0AAFF2BA3D3E9002307F08DFA0346002B10D0344803F0EDF80346184606F09BFF26A3A6
S32D0000D368D3E9002307F06AFA0346002B01D0012300E00023002B02D00223FB60DAE0294803F0D6F803461846E1
S32D0000D39006F084FF1AA3D3E9002307F053FA0346002B45D01F4803F0C7F80346184606F075FF11A3D3E90023D0
S32D0000D3B807F044FA0346002B36D0194803F0B8F80346184606F066FF0BA3D3E9002307F035FA0346002B27D074
S32D0000D3E0012326E0AFF300800000000000E07340D221337F7CD9224033333333333303406666666666660240C9
S32D0000D408F4160020F8160020DCB501001C1A00200000C8C1E4160020EC1600202C1700202817002024170020D4
S32D0000D4300023002B00F082800223FB607EE04A4800F0F0FC49494A4800F02EFD494803F073F80346184606F077
S32D0000D45821FF01231C463EA3D3E9002307F002FA0346002B01D100231C46E3B2002B02D00023FB6060E03E48AC
S32D0000D48003F05AF80346184606F008FF32A3D3E9002307F0EBF90346002B10D0374803F04BF80346184606F060
S32D0000D4A8F9FE2DA3D3E9002307F0C8F90346002B01D0012300E00023002B02D00123FB603AE02B4803F034F864
S32D0000D4D00346184606F0E2FE1FA3D3E9002307F0B1F90346002B1FD0244803F025F80346184606F0D3FE1AA365
S32D0000D4F8D3E9002307F0A2F90346002B10D01B4803F016F80346184606F0C4FE10A3D3E9002307F093F9034620
S32D0000D520002B01D0012300E00023002B08D00123FB6005E000BF18E600BF16E600BF14E600BF12E6084800F02B
S32D0000D5486DFC094800F06AFC00BF1437BD46F0BD66666666666602403333333333330340E41600200000C8C12D
S32D0000D570EC16002028170020241700202C17002080B500AF4FF4FA711C4803F0D3FA4FF4C8611A4803F0EBFAF2
S32D0000D5984FF45A71184803F0C9FA40F29E71164803F0E1FA40F20931144803F0BFFA40F26661124803F0D7FA49
S32D0000D5C01149104803F0F0FA4FF000000F4902F02DFB0F490A4803F0E7FA4FF000000B4902F024FB084905483D
S32D0000D5E803F0DEFA4FF00000064902F01BFB00BF80BD00BFFC1600200817002014170020000034430000E03FA7
S32D0000D6100000F04180B500AF0249034803F0C4FA00BF80BD000048421417002080B500AF0E490F4803F0B8FA88
S32D0000D6384FF000000D4902F0F5FA0D490D4803F0AFFA4FF00000094902F0ECFA05490A4803F0A6FA4FF000002C
S32D0000D660044902F0E3FA00BF80BD00BF0000B442141700200000F03F0000164308170020FC16002080B500AFA7
S32D0000D6882D211920FFF788FA4FF00000044902F0C9FA2D211920FFF7E3F900BF80BD00BF0000F03F80B500AF0D
S32D0000D6B00E490F4803F078FA4FF000000D4902F0B5FA0D490D4803F06FFA4FF00000094902F0ACFA0A490B482D
S32D0000D6D803F066FA4FF00000044902F0A3FA00BF80BD00BF00008C42141700200000E03F00003443081700200D
S32D0000D70000001643FC16002080B500AF0F4BD3F8A03003F48053002B14BF01230023DBB2002B10D0094BD3F8D1
S32D0000D728A030084A23F48053C2F8A030064806F0C7FB064B1B68054A23F40053136000BF80BD00BF00C0044078
S32D0000D750A41A0020C0F00F4080B400AF124B4FF480725A63114B5B69104A43F4005353610E4B1B680D4A43F47A
S32D0000D778005313600A4B0C4A1A630C4BD3F888310A4A43F08063C2F88831084B9B68074A43F08063936000BF6E
S32D0000D7A0BD4680BC704700BF00C00440C0F00F4003010A0000E100E080B400AF334B00225A70324B98221A70C6
S32D0000D7C8304B9B79DBB203F01003002B14BF01230023DBB2002B00D0F2E72A4B9B79DBB29B08DBB203F003032C
S32D0000D7F0022B14BF01230023DBB2002B00D0F0E7224B18221A71214B00225A71204B03F580531A461F4B536423
S32D0000D8181C4B54225A711B4B9B79DBB203F02003002B0CBF01230023DBB2002B00D0F2E7144B9B79DBB203F08C
S32D0000D8404003002B0CBF01230023DBB2002B00D0F2E70E4B1B78DBB20C4A03F03F03DBB213700A4B9B79DBB2CF
S32D0000D8689B08DBB203F00303032B14BF01230023DBB2002B00D0F0E700231846BD4680BC704700BF0040064006
S32D0000D890007004400000130180B500AF314B03F580539B6B2F4A43F4785302F580529363FFF752FFFFF780FF7B
S32D0000D8B82B4B58221A602A4B1B684FF47A7202FB03F3284A1360274B1B681A46234B03F580535B6C1B0E03F068
S32D0000D8E00F030133B2FBF3F31A46214B1A601D4B03F58053DB6B1B4A43F0225302F58052D363184B03F5805348
S32D0000D9081B6B164A43F0006302F580521363174B4FF480721A61642002F05AF8134B5B69124A23F01003536104
S32D0000D930104B00221A600F4B10225A610E4803F0DFFB02F0E1FE02F03FFF0C4802F0A6F80B4806F00DFB4FF4EF
S32D0000D958FA6002F051F900BF80BD00BF0070044068190020641900206C19002000D003401C1A002060190020B7
S32D0000D980141B002080B500AFFEF7DDFC00BF80BD80B500AFFEF7D7FC00BF80BD80B500AFFEF7D1FC00BF80BD32
S32D0000D9A880B500AFFEF7CBFC00BF80BD80B500AFFEF7C5FC00BF80BD80B500AFFEF7BFFC00BF80BD80B500AFAB
S32D0000D9D0FEF7B9FC00BF80BD80B500AFFEF7B3FC00BF80BD80B500AFFEF7ADFC00BF80BD80B500AFFEF7A7FC05
S32D0000D9F800BF80BD80B500AFFEF7A1FC00BF80BD80B500AFFEF79BFC00BF80BD80B500AFFEF795FC00BF80BDC1
S32D0000DA2080B500AFFEF78FFC00BF80BD80B500AFFEF789FC00BF80BD80B500AFFEF783FC00BF80BD80B500AFE6
S32D0000DA48FEF77DFC00BF80BD80B500AFFEF777FC00BF80BD80B500AFFEF771FC00BF80BD80B500AFFEF76BFC7C
S32D0000DA7000BF80BD80B500AFFEF765FC00BF80BD80B500AFFEF75FFC00BF80BD80B500AFFEF759FC00BF80BDFC
S32D0000DA9880B500AFFEF753FC00BF80BD80B500AFFEF74DFC00BF80BD80B500AFFEF747FC00BF80BD80B500AF22
S32D0000DAC0FEF741FC00BF80BD80B500AFFEF73BFC00BF80BD80B500AFFEF735FC00BF80BD80B500AFFEF72FFCF4
S32D0000DAE800BF80BD80B500AFFEF729FC00BF80BD80B500AFFEF723FC00BF80BD80B500AFFEF71DFC00BF80BD38
S32D0000DB1080B500AFFEF717FC00BF80BD80B500AFFEF711FC00BF80BD80B500AFFEF70BFC00BF80BD80B500AF5D
S32D0000DB38FEF705FC00BF80BD80B500AFFEF7FFFB00BF80BD80B500AFFEF7F9FB00BF80BD80B500AFFEF7F3FB6E
S32D0000DB6000BF80BD80B500AFFEF7EDFB00BF80BD80B500AFFEF7E7FB00BF80BD80B500AFFEF7E1FB00BF80BD76
S32D0000DB8880B500AFFEF7DBFB00BF80BD80B500AFFEF7D5FB00BF80BD80B500AFFEF7CFFB00BF80BD80B500AF9C
S32D0000DBB0FEF7C9FB00BF80BD80B500AFFEF7C3FB00BF80BD80B500AFFEF7BDFB00BF80BD80B500AFFEF7B7FBE7
S32D0000DBD800BF80BD80B500AFFEF7B1FB00BF80BD80B500AFFEF7ABFB00BF80BD80B500AFFEF7A5FB00BF80BDB2
S32D0000DC0080B500AFFEF79FFB00BF80BD80B500AFFEF799FB00BF80BD80B500AFFEF793FB00BF80BD80B500AFD7
S32D0000DC28FEF78DFB00BF80BD80B500AFFEF787FB00BF80BD80B500AFFEF781FB00BF80BD80B500AFFEF77BFB5E
S32D0000DC5000BF80BD80B500AFFEF775FB00BF80BD80B500AFFEF76FFB00BF80BD80B500AFFEF769FB00BF80BDED
S32D0000DC7880B500AFFEF763FB00BF80BD80B500AFFEF75DFB00BF80BD80B500AFFEF757FB00BF80BD80B500AF13
S32D0000DCA0FEF751FB00BF80BD80B500AFFEF74BFB00BF80BD80B500AFFEF745FB00BF80BD80B500AFFEF73FFBD6
S32D0000DCC800BF80BD80B500AFFEF739FB00BF80BD80B500AFFEF733FB00BF80BD80B500AFFEF72DFB00BF80BD29
S32D0000DCF080B500AFFEF727FB00BF80BD80B500AFFEF721FB00BF80BD80B500AFFEF71BFB00BF80BD80B500AF4F
S32D0000DD18FEF715FB00BF80BD80B500AFFEF70FFB00BF80BD80B500AFFEF709FB00BF80BD80B500AFFEF703FB4D
S32D0000DD4000BF80BD80B500AFFEF7FDFA00BF80BD80B500AFFEF7F7FA00BF80BD80B500AFFEF7F1FA00BF80BD67
S32D0000DD6880B500AFFEF7EBFA00BF80BD80B500AFFEF7E5FA00BF80BD80B500AFFEF7DFFA00BF80BD80B500AF8D
S32D0000DD90FEF7D9FA00BF80BD80B500AFFEF7D3FA00BF80BD0000000080B584B000AFF8600B467A60FB72FB6894
S32D0000DDB8FA7A1A71FB6800225A711749786807F0BDF80346002B02D0134B7B600AE04FF07E51786807F09EF81E
S32D0000DDE00346002B02D04FF07E537B60786806F055FA09A3D3E9002306F0A8FA02460B461046194606F084FDD7
S32D0000DE080246FB681A60FB6818461037BD4680BDABAAAAAAAAAA20400000404180B582B000AF78607B685B79FC
S32D0000DE30002B09D07B6800225A717B6819791E230022034801F064FE00BF0837BD4680BD6019002080B584B03A
S32D0000DE5800AF786039603B687F2B02DD7F23FB7308E03B6813F1800F02DA8023FB7301E03B68FB737B685B798C
S32D0000DE80FA7B9A4209D07B68FA7B5A717B681979FA7B1E23034801F03BFE00BF1037BD4680BD00BF60190020E9
S32D0000DEA8B0B584B000AF786039603749386807F027F80346002B02D0334B3B6008E03349386807F03BF8034687
S32D0000DED0002B01D02F4B3B60386806F0DFF904460D467B681B68184606F0D8F94FF00002294B06F055FB02463A
S32D0000DEF80B462046294606F025FA02460B461046194606F001FD03463B604FF00001386807F00AF80346002B4E
S32D0000DF2010D0386806F0BAF917A3D3E9002306F00DFA02460B461046194606F0A1FC0346FB6018E0386806F001
S32D0000DF48A9F94FF00002134B06F0FCF902460B46104619464FF000020D4B06F01DFB02460B461046194606F046
S32D0000DF7087FC0346FB60F9687868FFF76BFF00BF1037BD46B0BD00BF52B81E85EB51F43F0000C8C20000C842D6
S32D0000DF98000059400000604080B483B000AF03460A46FB711346BB71BB79002B03D1134B00221A7002E0114B07
S32D0000DFC001221A703823FB710E4B1A78FB791343FB710D4B9B78DBB20B4A43F01003DBB29370094B9B78DBB287
S32D0000DFE8074A43F02003DBB29370054AFB79137100BF0C37BD4680BC704700BF3D1700200060064080B483B055
S32D0000E01000AF01237B607B68312B04DC00BF7B6801337B60F7E700BF0C37BD4680BC704780B582B000AF03462F
S32D0000E0380A46FB711346BB71134B1B7800211846FFF7AAFF00F024F8104AFB79137100F01FF80E4ABB791371F5
S32D0000E06000F01AF80B4B9B78DBB20A4A23F02003DBB29370074B9B78DBB2064A23F01003DBB29370FFF7C2FFD1
S32D0000E08800BF0837BD4680BD3E1700200060064080B483B000AF174B1B78002B24D100237B60154BDB78DBB2A8
S32D0000E0B003F00203002B0CBF01230023DBB2002B0DD07B6842F21072934203DD0B4B01221A7004E07B6801332C
S32D0000E0D87B6000BFE5E7084BDB78DBB2064A43F00203DBB2D37000E000BF0C37BD4680BC704700BF3F1700201C
S32D0000E1000060064080B582B000AF0346FB71FB79184600F05FF800BF0837BD4680BD80B582B000AF03460A467A
S32D0000E128FB711346BB7100F035F8FB795B00DBB21846FFF7E3FFBB791846FFF7DFFF00F037F800BF0837BD46A3
S32D0000E15080BD80B500AFFF2000F03CF80346184680BD80B584B000AF0346FB7100F016F8FB795B005BB243F07F
S32D0000E17801035BB2DBB21846FFF7C0FFFFF7E5FF0346FB7300F014F8FB7B18461037BD4680BD000080B400AFFD
S32D0000E1A0044B9B68034A43F48013936000BFBD4680BC704740F00F4080B400AF044B5B68034A43F48013536002
S32D0000E1C800BFBD4680BC704740F00F4080B485B000AF0346FB710023BB73164BDB6A03F00043012B0CBF0123E0
S32D0000E1F00023DBB2002B03D0FB7B0133FB73F0E70E4BDB6A0D4A43F00043D3620B4AFB7953630A4BDB6A03F4B4
S32D0000E2180033002B0CBF01230023DBB2002B00D0F3E7044B9B6BBB73BB7B18461437BD4680BC704700C00A40A4
S32D0000E24080B582B000AF204B03F580531B6B1E4A43F4805302F5805213631C4B4FF480721A651B4B5B691A4A84
S32D0000E26843F480135361FFF7A3FF164B4FF400725A65144B4FF400729A65124B4FF40072DA65124B124A1A6006
S32D0000E290104B124ADA6000237B607B68092B06DCFF20FFF72FFF7B6801337B60F5E704A1D1E9000101F0BAFC60
S32D0000E2B800BF0837BD4680BD9A9999999999B93F0070044000A0044040F00F4000C00A40000C00800500003E7B
S32D0000E2E090B486B000AFF860B9607A60FB68534A93420AD1524B03F580535B6B504A43F4806302F5805253638B
S32D0000E30845E0FB684D4A93420AD14B4B03F580535B6B494A43F4006302F58052536336E0FB68474A93420AD18B
S32D0000E330434B03F580535B6B414A43F4805302F58052536327E0FB68404A93420AD13C4B03F580535B6B3A4A4C
S32D0000E35843F4005302F58052536318E0FB683A4A93420AD1344B03F580539B6A324A43F4806302F5805293625C
S32D0000E38009E02F4B03F580539B6A2D4A43F4006302F580529362FB68DB78DBB223F00C03DAB2FB68DA70FB686C
S32D0000E3A800229A70BB684FF47A7203FB02F27B681B0192FBF3F39CB2FB681B78DBB223F01F03FB75230A9BB275
S32D0000E3D0DBB203F01F03DAB2FB7D1343DAB2FB681A70E2B2FB685A70BB684FF4FA4203FB02F27B681B0192FBC9
S32D0000E3F8F3F39AB263019BB2D31A9CB2FB689B7ADBB223F01F03FB75E3B203F01F03DAB2FB7D1343DAB2FB683C
S32D0000E4209A72FB68DB78DBB243F00C03DAB2FB68DA7000BF1837BD4690BC704700A006400070044000B0064060
S32D0000E44800C0064000D0064000A00E4080B483B000AF78607B681B79DBB203F02003002B0CBF01230023DBB2CA
S32D0000E470002B00D0F2E77B68DB79DBB218460C37BD4680BC704780B483B000AF78600B46FB707B681B79DBB2A1
S32D0000E4985BB2DB43DBB2DB09DBB2002B00D0F4E77B68FA78DA7100BF0C37BD4680BC704780B487B000AFF8604D
S32D0000E4C0B9607A60FB687B617B685A1E7A60002B14BF01230023DBB2002B06D07B695A1C7A61BA68D2B21A708F
S32D0000E4E8EEE700BF1C37BD4680BC704780B584B000AF786039607B681B6BFB60FA683B689A4252D07B681B7962
S32D0000E510002B35D07B6858787B6803F134010123FA6801F0F7F80346002B14BF01230023DBB2002B01D001234D
S32D0000E5383CE07B6800221A717B685A6A7B681B6A1344FA689A4217D27B68DB78FB72FB7A012B11D97B681B6AE6
S32D0000E560FA681344FB607B6858787B6803F134010123FA6801F0CEF8FB7A013BFB72EAE73B68002B15D07B68F8
S32D0000E58858787B6803F1340101233A6800F0DAFF0346002B14BF01230023DBB2002B01D0012303E07B683A6857
S32D0000E5B01A63002318461037BD4680BD80B584B000AF786000217868FFF794FF0346FB73FB7B002B40F09380A3
S32D0000E5D87B681B78032B7DD17B685B79002B79D07B6800221A637B6834334FF4007200211846FFF75DFF7B68C3
S32D0000E600552283F832227B68AA2283F833227B68522283F834207B68522283F835207B68612283F836207B68C0
S32D0000E628412283F837207B68722283F818227B68722283F819227B68412283F81A227B68612283F81B227B6838
S32D0000E6501B69DAB27B6883F81C227B681B699BB21B0A9BB2DAB27B6883F81D227B681B691B0CDAB27B6883F829
S32D0000E6781E227B681B691B0EDAB27B6883F81F227B68DB68DAB27B6883F820227B68DB689BB21B0A9BB2DAB2B6
S32D0000E6A07B6883F821227B68DB681B0CDAB27B6883F822227B68DB681B0EDAB27B6883F823227B6858787B681C
S32D0000E6C803F134017B685A69012301F01FF87B6800225A717B685B7800220021184601F0E1F80346002B14BFF1
S32D0000E6F001230023DBB2002B01D00123FB73FB7B18461037BD4680BD80B582B000AF78600B467B807B68002BF7
S32D0000E71808D07B681B78002B04D07B68DB887A889A4201D0092311E07B685B78184601F03BF9034603F00103FB
S32D0000E740002B14BF01230023DBB2002B01D0032300E0002318460837BD4680BD80B586B000AF78607B681A6880
S32D0000E7687B689B8819461046FFF7CAFF0346FB75FB7D002B40F0AC807B689B7903F02003002B00F0A5807B6821
S32D0000E7909B7903F04003002B1BD07B681B6858787B6803F128017B689A69012300F0B2FF0346002B14BF0123AF
S32D0000E7B80023DBB2002B01D001238AE07B689B7923F04003DAB27B689A717B681A687B68DB6919461046FFF7FB
S32D0000E7E089FE0346FB75FB7D002B75D17B681B6A3B613B690B331A783B690B3342F02002D2B21A707B68DA6801
S32D0000E8083B691C33D2B21A707B68DB689BB21B0A9AB23B691D33D2B21A707B68DB681A0C3B691E33D2B21A70AC
S32D0000E8307B68DB681A0E3B691F33D2B21A707B681A693B691A33D2B21A707B681B699BB21B0A9AB23B691B33EC
S32D0000E858D2B21A707B681B691A0C3B691433D2B21A707B681B691B0C9BB21B0A9AB23B691533D2B21A70002395
S32D0000E880FB603B691633FA68D2B21A70FB689BB21B0A9AB23B691733D2B21A70FB681A0C3B691833D2B21A700F
S32D0000E8A8FB681A0E3B691933D2B21A707B689B7923F02003DAB27B689A717B681B6801221A717B681B6818463A
S32D0000E8D0FFF774FE0346FB75FB7D18461837BD4680BD80B584B000AF78607868FFF736FF0346FB73FB7B002B41
S32D0000E8F802D17B6800221A60FB7B18461037BD4680BD000080B588B000AF7860396080233B610F23FB604FF0AD
S32D0000E920FF337B610223FB61FB69B3F5807F23D80123BB61BB69102B1AD8FB69BA6902FB03F33A6803FB02F295
S32D0000E9487B68D31ABB60BB68002B09DBBB687A699A4205D9BB687B61FB693B61BB69FB60BB690133BB61E1E70A
S32D0000E970FB695B00FB61D7E71D4BDB6A1C4A23F00803D3621A4BDB6A23F47F2323F47F63BB613B695B081B029E
S32D0000E9989AB2FB68013B1B01DBB21A43BB691343114A43F46023D3620F4B5B6A03F00803002B0CBF0123002342
S32D0000E9C0DBB2002B03D00A2001F01AF9F0E7084BDB6A074A43F00803D362054B1B6B044A43F48013136300BF1A
S32D0000E9E82037BD4680BD00BF00100B4080B582B000AF786039607B6800221A60414B424ADA62404BDB6A03F033
S32D0000EA108073002B14BF01230023DBB2002B00D0F3E73A4B0022C3F8C020384B4FF481325A60364B28229A6202
S32D0000EA38344B4FF001125A643B689B6833491846FFF760FF2F4B5B6A03F00303002B14BF01230023DBB2002B17
S32D0000EA6000D0F3E72C4B40F243421A602A4B40F243425A60284B4FF488629A60264B40F24342DA60244B40F2B3
S32D0000EA8843421A61224B40F243425A61214B03F580531B6B1F4A43F4003302F580521363184B4FF6FF721A631C
S32D0000EAB0164B1B4A5A63154BDB6A144A43F00063D362124BDB6A03F00063002B14BF01230023DBB2002B00D022
S32D0000EAD8F3E70C4B5B6A03F48033002B14BF01230023DBB2002B02D07B6801221A60054B1B6B044A43F0800347
S32D0000EB001363002318460837BD4680BD00100B400080000160CC050000D0044000700440B3007F0080B400AF87
S32D0000EB28064B5A6A40F207331340002B14BF01230023DBB21846BD4680BC704700100B4080B485B000AF78607A
S32D0000EB50074B1B6B7A681340FB60FB68002B00D1F6E7FB6818461437BD4680BC704700BF00100B4080B584B06E
S32D0000EB7800AF78607B681B7803F03F03764A52F82330FB60FB68002B05D17B681B78002B01D00123DCE0714B13
S32D0000EBA01B6B704A43F0800313636E4B5B6A03F00103002B14BF01230023DBB2002B00D0F3E7684A7B685B6867
S32D0000EBC89360FB6823F44003FB607B685B789B0503F44003FA681343FB607B685B78022B03D1FB6843F400130D
S32D0000EBF0FB607B685B78042B16D1FB6803F44033B3F5003F08D1FB6823F44033FB60FB6843F44033FB6007E0AC
S32D0000EC18FB6823F44033FB60FB6843F40033FB604E4B5B684D4A9BB253607B68DB68002B2AD0FB6803F4403353
S32D0000EC40B3F5403F03D0FB6843F40013FB607B681B7A002B03D0FB6843F01003FB607B68DB68012B03D9FB6899
S32D0000EC6843F02003FB607B68DB68B3F1FF3F0BD03A4B5A687B68DB681B04384913434B60FB6843F00203FB60E6
S32D0000EC90344B00221A60334AFB68D3603248FFF753FF0346012B14BF01230023DBB2002B09D02C4B1B6B2B4AD4
S32D0000ECB843F4702343F001031363012348E0274B1B6B03F08003002B14BF01230023DBB2002B07D0214B1B6B37
S32D0000ECE0204A43F001131363012335E01D4B1B6B03F48033002B14BF01230023DBB2002B08D0184B1B6B174AEF
S32D0000ED0843F0011313634FF0FF3321E0FB6803F44033002B15D0114B1A697B681A61FB6803F44033B3F5803F60
S32D0000ED300BD10C4B5A697B685A610A4B9A697B689A61084BDA697B68DA61064B1B6B054A43F001031363002341
S32D0000ED5818461037BD4680BDF0B5010000100B4001000E0080B592B000AF7860396000237B643B68BB63994B5A
S32D0000ED807B637B6B002B02D140F601235FE3964B3B633B6B002B02D140F60B2357E33B6B1B68FB62FB6A002B30
S32D0000EDA802D140F60B234EE37B6841F20932934200F23F837B68B3F5985F08D87B68032B00F01A837B68092BE4
S32D0000EDD000F0098331E37B68A3F59853013B082B00F22B8301A252F823F000BF11EE0000FDF0000059F3000019
S32D0000EDF813F1000051F1000077F20000BFF2000001F200001BF200007649786BFFF7EEFD78647B6C002B40F0EC
S32D0000EE201083002387F84330002387F82B30002387F82A30002387F82930002387F84230002387F828300023F7
S32D0000EE483B7200237B720023FB6000233B7400237B6107F108031846FFF788FE0346002B14BF01230023DBB298
S32D0000EE70002B02D001237B64E8E240F24C4000F0BFFE08233B7200237B724FF4D573FB6000233B7400237B61A0
S32D0000EE9807F108031846FFF769FEF863FB6B002B09D1BA69FB689A4202D001237B64C9E2012387F842300123AD
S32D0000EEC087F8283097F82830002B00F0A58037233B7200237B720023FB6000233B7400237B6107F1080318465F
S32D0000EEE8FFF744FEF863FB6B002B02D001237B64A8E269233B7200237B720023FB6000233B7400237B6107F1E9
S32D0000EF1008031846FFF72EFE0346002B14BF01230023DBB2002B02D001237B648EE2BB6903F44013002B6FD0E5
S32D0000EF380023FB630A2000F05FFEFB6B0133FB6337233B7200237B720023FB6000233B7400237B6107F1080352
S32D0000EF601846FFF707FE0346002B14BF01230023DBB2002B02D001237B6428E069233B7200237B7297F84230BD
S32D0000EF88002B02D0184BFB6002E04FF44013FB6000233B7400237B6107F108031846FFF7E5FD0346002B14BF7C
S32D0000EFB001230023DBB2002B02D001237B6406E0BB69002B03DBFB6B632B00D8B6E77B6C002B40F03882FB6B81
S32D0000EFD8632B0BD9002387F8423019E05417002058190020E4B5010000003040012387F8433097F84230002B24
S32D0000F0000AD0002387F84230BB6903F08043002B02D0012387F8423097F82A30002B02D07B6B07221A6097F80A
S32D0000F0282930002B02D07B6B08221A6097F82B30002B02D07B6B04221A6097F84330002B09D07B6B02221A60E3
S32D0000F05097F84230002B02D07B6B03221A6097F82B30002B0DD097F84330002B09D07B6B05221A6097F842308F
S32D0000F078002B02D07B6B06221A60924B00221A60904B00225A608F4B00229A608D4B0022DA608C4B00221A6117
S32D0000F0A08A4B00225A61FB6A9A68FB6A5B6819461046FFF72BFC854B40F243421A60834B40F243425A60814B23
S32D0000F0C84FF488629A607F4B40F24342DA607D4B40F243421A617B4B40F243425A617A4B03F580531B6B784A2E
S32D0000F0F043F4003302F580521363A7E1B86BFFF739FDF863FB6B002B00F09F8102237B649BE1BB6B002B02D1D2
S32D0000F1180C237B6496E16D4BDB6A1B0A5B0003F4FF73FB63694BDB6A1B0903F00F035A1CFB6B02FB03F3FB63B1
S32D0000F140FB6A9A68FB6BB2FBF3F2BB6B1A607DE1BB6B002B02D10C237B6477E1BB6B1B68002B02D10C237B6405
S32D0000F16870E1FFF7DBFC0346002B0CBF01230023DBB2002B3CD0534B00221A60514B00225A60504B00229A60A8
S32D0000F1904E4B0022DA604D4B00221A614B4B00225A61FB6A9A68BB6B1B6819461046FFF7ADFB464B40F2434209
S32D0000F1B81A60444B40F243425A60424B4FF488629A60404B40F24342DA603E4B40F243421A613C4B40F2434286
S32D0000F1E05A613B4B03F580531B6B394A43F4003302F58052136329E140F60A237B6425E1BB6B002B02D10C239E
S32D0000F2087B641FE1314B5B68C3F30C02BB6B1A6018E1BB6B002B02D10C237B6412E1FFF77DFC0346002B0CBF8A
S32D0000F23001230023DBB2002B19D0BB6B1B68B3F5805F02D30C237B6400E1224B5B68214A23F4FF5323F01F039B
S32D0000F25853601E4B5A68BB6B1B68C3F30C031B4913434B60EEE040F60A237B64EAE0BB6B002B02D10C237B64CB
S32D0000F280E4E0144B9B6A5B0803F00303FB63FB6B002B03D1BB6B00221A60D7E0FB6B012B03D1BB6B01221A6077
S32D0000F2A8D0E0FB6B102B03D1BB6B02221A60C9E005237B64C6E0BB6B002B09D10C237B64C0E000BF00D004404D
S32D0000F2D00070044000100B40FFF724FC0346002B0CBF01230023DBB2002B31D0BB6B1B68002B0AD1584B9B6A55
S32D0000F2F8574A23F006039362554B554A9B6A9362A0E0BB6B1B68012B0CD1514B9B6A504A23F0060393624E4BE6
S32D0000F3209B6A4D4A43F0020393628FE0BB6B1B68022B0AD1484B9B6A474A23F006039362454B454A9B6A936283
S32D0000F34880E005237B647DE040F60A237B6479E0BB6B002B02D10C237B6473E03C4BDB6A3B4A43F00063D36297
S32D0000F370394BDB6A03F00063002B14BF01230023DBB2002B00D0F3E7334B1B6B03F08003002B14BF01230023EA
S32D0000F398DBB2002B08D02E4B1B6B2D4A43F0800313637B6B00221A60294B5B6A03F48033002B14BF012300236B
S32D0000F3C0DBB2002B07D07B6B1B68002B06D17B6B01221A6002E07B6B00221A607B6B1A68BB6B1A6032E0BB6BFE
S32D0000F3E81C221A60BB6B043304221A60BB6B08334FF41E721A6025E00220FFF7A1FB144B1B6B03F4E003002BF1
S32D0000F41014BF01230023DBB2002B07D00E4B1B6B0D4A43F4E003136304237B640A4B1B6B094A43F0320313634D
S32D0000F43808E040F609237B6404E000BF02E000BF00E000BF7B6C18464837BD4680BD00BF00100B4080B489B00F
S32D0000F46000AF786039607B687B61364B3B613B69002B01D100235FE03B691B68022B0BD03B691B68032B07D024
S32D0000F4883B691B68072B03D03B691B68082B0BD12B4B5B6A03F00403002B14BF01230023DBB2002B00D0F3E718
S32D0000F4B03B68FB61FB69002B3DD0FB69B3F5007F28BF4FF40073FB60FB6803339B08BB61BB69002B2AD01C4B08
S32D0000F4D81B6B03F4E003002B14BF01230023DBB2002B09D0164B1B6B154A43F4E00343F02003136300231BE086
S32D0000F500114B5B6A03F40063002B0CBF01230023DBB2002B00D0F3E70B497B691A1D7A610A6A1A60BB69013B2B
S32D0000F528BB61D1E7FA69FB68D31AFB61BEE7012318462437BD4680BC704700BF5417002000100B4080B58EB042
S32D0000F55000AFB9607A601A460346FB731346BB73414B7B63FB7B002B02D1BB7B002B01D1042375E03D4B1B78A5
S32D0000F578DBB203F00103002B14BF01230023DBB2002B01D0032367E0BB68002B01D1002362E07B6B1B7B002B7A
S32D0000F5A002D17B685B027B60BB7B012B28D111233B7500237B757B68BB6101233B77BB7B3B6207F114031946E7
S32D0000F5C841F20230FFF7CEFB0346002B0CBF01230023DBB2002B38D04FF40071B868FFF739FF0346002B14BF62
S32D0000F5F001230023DBB2002B2BD00023BB7328E012233B7500237B757B68BB6101233B77BB7B3B6207F11403EB
S32D0000F618194641F20230FFF7A5FB0346002B0CBF01230023DBB2002B0FD0BB7B5B021946B868FFF70FFF0346EE
S32D0000F640002B14BF01230023DBB2002B01D00023BB73BB7B002B01D0012300E0002300BF18463837BD4680BD58
S32D0000F668401700200000002080B487B000AF786039607B68FB603B687B617B69002B3DD07B69B3F5007F28BF87
S32D0000F6904FF400733B617A693B69D31A7B613B6903339B083B613B69002BEAD0184B1B6B03F4E003002B14BF47
S32D0000F6B801230023DBB2002B0AD0134B1B6B124A43F4E00343F0100313634FF0FF3316E00D4B5B6A03F48063D7
S32D0000F6E0002B0CBF01230023DBB2002B00D0F3E7FB681A1DFA60064A1B6813623B69013B3B61D0E7012318466C
S32D0000F7081C37BD4680BC704700100B4080B58EB000AFB9607A601A460346FB731346BB735D4B7B63FB7B002B55
S32D0000F73002D1BB7B002B01D10423ADE0594B1B78DBB203F00103002B14BF01230023DBB2002B01D003239FE0C3
S32D0000F758524B1B78DBB203F00403002B14BF01230023DBB2002B01D0022391E0BB68002B01D100238CE07B6BD3
S32D0000F7801B7B002B02D17B685B027B60BB7B012B28D118233B7500237B757B68BB6100233B77BB7B3B6207F1B4
S32D0000F7A81403194641F20230FFF7DCFA0346002B0CBF01230023DBB2002B38D04FF40071B868FFF751FF0346E3
S32D0000F7D0002B14BF01230023DBB2002B2BD00023BB7328E019233B7500237B757B68BB6100233B77BB7B3B6214
S32D0000F7F807F11403194641F20230FFF7B3FA0346002B0CBF01230023DBB2002B0FD0BB7B5B021946B868FFF748
S32D0000F82027FF0346002B14BF01230023DBB2002B01D00023BB730D233B7500237B757B6B1B69BB6100233B77DE
S32D0000F84800233B6207F11403194641F20230FFF789FA0346002B14BF01230023DBB2002B01D0012314E07A6A73
S32D0000F8700D4B1340002B01D001230DE07B6A03F4F853B3F5106F00D0D5E7BB7B002B01D0012300E0002300BFC0
S32D0000F89818463837BD4680BD40170020000000200880D9FF80B58CB000AF03463A60FB710B46BB713A4BBB62B0
S32D0000F8C0FB79002B01D0042369E0012387F82F30364B1B78DBB203F00103002B14BF01230023DBB2002B01D0D2
S32D0000F8E8032358E0BB79032B50D801A252F823F009F9000011F9000021F9000031F90000002387F82F3044E095
S32D0000F910BB6A9A683B681A60002387F82F303CE03B684FF400721A80002387F82F3034E009233B7200237B7278
S32D0000F938BB6A1B69FB6000233B7400237B6107F10803194641F20230FFF70CFA0346002B14BF01230023DBB2EE
S32D0000F960002B01D001231AE07B6A03F44003002B0CD13B6A9B0C03F07F035A1C7B6A1B0A03F00303013B9A40E8
S32D0000F9883B681A60002387F82F3002E0042387F82F3097F82F3018463037BD4680BD00BF401700200000002003
S32D0000F9B080B483B000AF0346FB71FB79002B01D0012302E0034B1B78DBB218460C37BD4680BC704700000020C3
S32D0000F9D880B483B000AF7860164B03F580539B6B144A43F0010302F580529363124A7B689360114B05225A601E
S32D0000FA000F4B1B680E4A43F0010313600C4B1B6803F08003002B0CBF01230023DBB2002B00D0F3E7064B1B6836
S32D0000FA28054A23F00103136000BF0C37BD4680BC704700BF007004400000044080B582B000AF786039607B68BE
S32D0000FA50012B07D13B684FF6FF72934202D1034800F00EF800BF0837BD4680BD6019002080B500AF4FF6FF71D2
S32D0000FA780120FFF7E3FF80BD80B483B000AF78607B6800221A707B6818460C37BD4680BC7047000080B582B0CC
S32D0000FAA000AF78607B681B7883F00103DBB2002B21D0134B03F580531A464FF400639362104B4FF440721A622B
S32D0000FAC80E4B4FF440725A620D4B1B68DA0F13445B104FF4614219460A48FEF7FDFB642000F08AF87B68012200
S32D0000FAF01A70012300E0002318460837BD4680BD0070044000D004406419002000B00E4080B582B000AF786009
S32D0000FB18084611461A460346FB700B46BB7013467B707F210E48FEF7AAFC08210C48FEF7A6FCFB7819460A487D
S32D0000FB40FEF7A1FCBB7819460748FEF79CFC7B7819460548FEF797FCFF210348FEF793FC00BF0837BD4680BD43
S32D0000FB6800B00E4080B487B000AFF860B9607A60FB681F4AA2FB03239B09BA6813447B61FB681B4AA2FB03120A
S32D0000FB9092094FF47A7101FB02F29B1AFB60FB68DB03154AA2FB03239B097A6813443B613B69DB0B7A691344DE
S32D0000FBB87B613B69C3F30E033B610E4B1B687A699A4209D80B4B1B687A699A4206D1094B5B683A699A4201D9E1
S32D0000FBE0012300E00023002B00D0EAE700BF1C37BD4680BC704700BFD34D621000D0034080B584B000AF7860A8
S32D0000FC08074B1B68FB60064B5B68BB607B68BA68F9681846FFF7A6FF00BF1037BD4680BD00D0034080B584B04E
S32D0000FC3000AFC7E900010E4B1B68FB600C4B5B68BB604FF000020B4BD7E9000104F07EFB02460B4610461946C7
S32D0000FC5804F03AFE0346BA68F9681846FFF782FF00BF1037BD4680BD00D0034000408F4080B483B000AF0B4BDD
S32D0000FC801B684FF47A7202FB03F37B60074B5B684FF47A7202FB03F3DB0B7A6813447B607B6818460C37BD461E
S32D0000FCA880BC704700D0034080B582B000AF78600B46FB70FB781946786800F005F87B6818460837BD4680BD1F
S32D0000FCD080B483B000AF78600B46FB707B68FA781A707B681B781A46534B9B5C042B00F29E8001A252F823F0D3
S32D0000FCF80DFD000047FD000081FD0000BBFD0000F5FD00004B4A7B681B7819464A4B53F8213040F2031142F84D
S32D0000FD202310484B5A697B681B781946444B53F8213003F01F03012101FA03F3DB43414913404B6173E0404A80
S32D0000FD487B681B7819463C4B53F8213040F2031142F823103B4B5A697B681B781946364B53F8213003F01F0392
S32D0000FD70012101FA03F3DB43344913404B6156E0334A7B681B7819462D4B53F8213040F2031142F823102F4BEF
S32D0000FD985A697B681B781946274B53F8213003F01F03012101FA03F3DB43284913404B6139E0274A7B681B78E1
S32D0000FDC019461F4B53F8213040F2031142F82310224B5A697B681B781946194B53F8213003F01F03012101FAC6
S32D0000FDE803F3DB431B4913404B611CE01A4A7B681B781946104B53F8213040F2031142F82310164B5A697B6890
S32D0000FE101B7819460A4B53F8213003F01F03012101FA03F3DB430F4913404B6100BF00BF0C37BD4680BC70478D
S32D0000FE38F0B601000090044034B7010000F00F4000A0044040F00F4000B0044080F00F4000C00440C0F00F40DD
S32D0000FE6000D0044000F10F4080B485B000AF78600023FB607B681B781A46364B9B5C042B5CD801A252F823F001
S32D0000FE889DFE0000BDFE0000DDFE0000FDFE00001DFF00002E4B1B697A68127811462D4A52F8212002F01F022F
S32D0000FEB0012101FA02F21340FB603FE0284B1B697A6812781146254A52F8212002F01F02012101FA02F213401B
S32D0000FED8FB602FE0214B1B697A68127811461D4A52F8212002F01F02012101FA02F21340FB601FE01A4B1B6933
S32D0000FF007A6812781146154A52F8212002F01F02012101FA02F21340FB600FE0134B1B697A68127811460D4A69
S32D0000FF2852F8212002F01F02012101FA02F21340FB6000BFFB68002B14BF01230023DBB218461437BD4680BC72
S32D0000FF50704700BFF0B6010000F00F4034B7010040F00F4080F00F40C0F00F4000F10F4080B584B000AF7860CE
S32D0000FF780B46FB700B23FB73FA7BFB781946786800F094F87B6818461037BD4680BD000080B485B000AF7860A8
S32D0000FFA07B68103B002B00DA1F335B11FB60FB68022B53D0FB68022B75DCFB68002B03D0FB68012B25D06EE020
S32D0000FFC8394BD3F880217B68103B594203F01F0301F01F0158BF4B42012101FA03F332491343C1F88031304BBF
S32D0000FFF01A687B68103B594203F01F0301F01F0158BF4B42012101FA03F3294913430B6049E0274BD3F884217D
S32D000100187B68103B594203F01F0301F01F0158BF4B42012101FA03F31F491343C1F884311D4B5A687B68103B8F
S32D00010040594203F01F0301F01F0158BF4B42012101FA03F3164913434B6024E0144BD3F888217B68103B594219
S32D0001006803F01F0301F01F0158BF4B42012101FA03F30D491343C1F888310B4B9A687B68103B594203F01F0338
S32D0001009001F01F0158BF4B42012101FA03F3044913438B6000BF00BF1437BD4680BC704700E100E080B584B002
S32D000100B800AF78600B46FB701346BB707B68FA781A70BB78FB737B681B781A46574B9B5C042B00F2A68001A279
S32D000100E052F823F0F9000100450101009101010029020100DD010100FB7B1B0403F470234D497A68127810463E
S32D000101084C4A52F8202043F4897343F0010341F82230494B5A697B681B781946454B53F8213003F01F03012124
S32D0001013001FA03F3DB43424913404B616720FFF72BFF72E0FB7B1B0403F470233D497A6812781046394A52F8DA
S32D00010158202043F4897343F0010341F82230384B5A697B681B781946324B53F8213003F01F03012101FA03F3E7
S32D00010180DB43314913404B616820FFF705FF4CE0FB7B1B0403F470232C497A6812781046264A52F8202043F484
S32D000101A8897343F0010341F82230274B5A697B681B7819461F4B53F8213003F01F03012101FA03F3DB432049AB
S32D000101D013404B616920FFF7DFFE26E0FB7B1B0403F470231B497A6812781046134A52F8202043F4897343F00D
S32D000101F8010341F82230164B5A697B681B7819460C4B53F8213003F01F03012101FA03F3DB430F4913404B61C0
S32D000102206B20FFF7B9FE00E000BF00BF1037BD4680BD00BFF0B601000090044034B7010000F00F4000A0044049
S32D0001024840F00F4000B0044080F00F4000D0044000F10F40B0B48BB000AF224B3C1D1D460FCD0FC495E80F004F
S32D0001027084E80F0000237B627B6A072B30DC1C4BD3F8A0207B6A9B0028333B4453F8243C012101FA03F3134064
S32D00010298002B14BF01230023DBB2002B18D0134A7B6A52F823305A1C10497B6A41F823200D4BD3F8A0207B6A7B
S32D000102C09B0028333B4453F8243C012101FA03F307491340C1F8A0307B6A01337B62CBE700BF2C37BD46B0BC77
S32D000102E8704700BF38B8010000A0044090190020B0B489B000AF224B3C1D1D460FCD0FC495E8030084E80300C0
S32D000103100023FB61FB69052B30DC1C4BD3F8A020FB699B0020333B4453F81C3C012101FA03F31340002B14BFD5
S32D0001033801230023DBB2002B18D0FB690833124A52F823200132104941F823200D4BD3F8A020FB699B002033EA
S32D000103603B4453F81C3C012101FA03F307491340C1F8A030FB690133FB61CBE700BF2437BD46B0BC704700BF68
S32D0001038858B8010000B0044090190020B0B48DB000AF234B3C461D460FCD0FC40FCD0FC495E8070084E8070080
S32D000103B00023FB62FB6A0A2B30DC1C4BD3F8A020FB6A9B0030333B4453F8303C012101FA03F31340002B14BF09
S32D000103D801230023DBB2002B18D0FB6A0E33124A52F823200132104941F823200D4BD3F8A020FB6A9B00303332
S32D000104003B4453F8303C012101FA03F307491340C1F8A030FB6A0133FB62CBE700BF3437BD46B0BC704700BFA1
S32D0001042870B801000090044090190020B0B487B000AF214B3C461D460FCD0FC42B68236000237B617B69042B6D
S32D0001045030DC1C4BD3F8A0207B699B0018333B4453F8183C012101FA03F31340002B14BF01230023DBB2002B34
S32D0001047818D07B691933124A52F823200132104941F823200D4BD3F8A0207B699B0018333B4453F8183C01215F
S32D000104A001FA03F307491340C1F8A0307B6901337B61CBE700BF1C37BD46B0BC704700BF9CB8010000D004400A
S32D000104C89019002080B483B000AF78607B681B781A46044B53F8223018460C37BD4680BC704700BF901900206D
S32D000104F080B483B000AF78607B681B781946044B002243F8212000BF0C37BD4680BC70479019002080B483B005
S32D0001051800AF78600B46FB707B68FA781A707B6818460C37BD4680BC704700000000000080B586B000AF786026
S32D000105407B681B781A463E4B53F822303B617B681B781A463B4B9B5CFB733B69DBB203F01F03DAB2384B1A7252
S32D000105683B69DBB203F01F03DAB2354B5A72354B1022C3F88820FB7B002B13D13049324800F05AFA304B1B6877
S32D0001059003F08003802B14BF01230023DBB2002B00D0F3E72A4B1B697B6112E02649294800F046FA274B1B68D3
S32D000105B803F08003802B14BF01230023DBB2002B00D0F3E7214B1B697B611E4BD3F888311C4A43F01003C2F858
S32D000105E088311A4B9B68194A43F0100393607B699BB2184603F030FE0DA3D3E9002303F0A5FE02460B4610466B
S32D0001060819460BA3D3E9002303F0C6FF02460B461046194604F078F90346BB60BB6818461837BD4680BD00BF39
S32D00010630A4703D0AD7A30A4000000000E0FFEF40B4B7010010B701007019002000E100E000B0034000B00B40E2
S32D0001065880B586B000AF78607B681B781A46234B53F822303B617B681B781A46204B9B5CFB733B69DBB203F03A
S32D000106801F03DAB21D4B1A723B69DBB203F01F03DAB21A4B5A72FB7B002B13D11749184800F0CEF9164B1B68C6
S32D000106A803F08003802B14BF01230023DBB2002B00D0F3E7104B1B697B6112E00D490F4800F0BAF90D4B1B68AE
S32D000106D003F08003802B14BF01230023DBB2002B00D0F3E7074B1B697B617B6918461837BD4680BDB4B701006F
S32D000106F810B701008019002000B0034000B00B4098B500AF204B5C221A701F4B10225A701D4B41F234225A80C4
S32D000107201B4B45F278629A80194B10229A71184B0722DA71164B4FF4C022DA60144B1F221A72134B1F225A724A
S32D000107481149124800F078F90F49114800F074F90F4800F0D2F80D4800F0CFF80A490C4800F06AF908490948A6
S32D0001077000F066F9094A064B14460FCB84E80F00064B5C221A70054B0422DA7100BF98BD7019002000B00340EE
S32D0001079800B00B408019002080B500AF064B1B680133054A136000F03DF8044B0122C3F80C2100BF80BD00BF96
S32D000107C0141A00200070034080B500AF0C4B01221A600C4800F01AF8094B0322C3F80821094BD3F88831084A54
S32D000107E843F01003C2F88831054B9B68044A43F01003936000BF80BD00700340A086010000E100E080B483B051
S32D0001081000AF7860044A7B68C2F8003100BF0C37BD4680BC704700BF0070034080B584B000AF174B1B68FB6054
S32D00010838FB68002B24D0FB685B78FB71FB689B68184600F023F80346BB71BB79002B13D0FB685B68012B0FDDA9
S32D00010860FB689B681B69BB60BB68002B08D0BB685B685A1CBB685A60BB681B69BB60F3E7FB68DB68FB60D7E7AA
S32D0001088800BF1037BD4680BD101A002080B584B000AF78607868FFF7DBFEF8607B689B695B78FB72FB7A002BF3
S32D000108B00FD17B68DB68FA689A420ADD7B689B6901225A707B685B685A1C7B685A60012313E0FB7A012B0FD1C9
S32D000108D87B689B68FA689A420ADA7B689B6900225A707B685B685A1C7B685A60012300E0002318461037BD468E
S32D0001090080BD80B485B000AF78607B681B6A23F040027B681A627B685B6A23F00B027B685A627B685B6A43F03D
S32D0001092807027B685A627B685B6A43F080027B685A627B681B6803F08003002B0CBF01230023DBB2002B00D05B
S32D00010950F3E77B685B6A03F04003402B0CBF01230023DBB2002B01D0012364E00023FB817B68DB6CFB817B682A
S32D000109789B6C9AB2FB891344FB817B685B6C9AB2FB891344FB817B681B6C9AB2FB891344FB817B68DB6B9AB2D7
S32D000109A0FB891344FB817B689B6B9AB2FB891344FB81FB895B08FB81FB896FEA43436FEA5343FB81FA897B68AE
S32D000109C8DA620023FB817B68DB6EFB817B689B6E9AB2FB891344FB817B685B6E9AB2FB891344FB817B681B6E33
S32D000109F09AB2FB891344FB817B68DB6D9AB2FB891344FB817B689B6D9AB2FB891344FB81FB895B08FB81FB89F2
S32D00010A186FEA43436FEA5343FB81FA897B681A637B685B6A23F080027B685A62002318461437BD4680BC7047E4
S32D00010A4080B483B000AF786039603B681B781A467B689A603B685B781A467B68DA603B685B881A467B689A61D6
S32D00010A683B689B881A467B68DA613B689B791A467B681A623B68DB791A467B685A623B68DA687B681A653B68C5
S32D00010A901B7A1A467B681A603B685B7A1A467B685A6000BF0C37BD4680BC704780B483B000AF78607B68184649
S32D00010AB80C37BD4680BC704780B582B000AF786039607B68012B07D13B684FF6FF72934202D10348FFF7E6FF41
S32D00010AE000BF0837BD4680BD181A002080B500AF4FF6FF710120FFF7E3FF80BD80B483B000AF78600B46FB70DE
S32D00010B087B68FA781A707B684FF4FA725A807B6840F6C4129A807B68034A9A607B6818460C37BD4680BC7047C6
S32D00010B30000080BF80B483B000AF786039603B68B3F5FA7F04DB3B6840F6C412934204DD7B684FF4FA725A805C
S32D00010B5804E03B689AB27B685A8000BF00BF0C37BD4680BC704780B483B000AF786039603B68B3F5FA7F04DBFD
S32D00010B803B6840F6C412934204DD7B6840F6C4129A8004E03B689AB27B689A8000BF00BF0C37BD4680BC704751
S32D00010BA82DE9904385B000AF786039604FF00001386804F0A5F90346002B02D04FF000033B603249386804F03C
S32D00010BD0B9F90346002B01D02E4B3B607B689B681946386804F086F90346002B00D04BE07B683A689A607B68C2
S32D00010BF85C887B689B881A467B685B88D31A184603F036FB4FF00002214B03F0C5FC02460B4690469946386800
S32D00010C2003F03CFB02460B464046494603F08EFB02460B461046194603F04AFE03469BB22344FB81FB897B73DD
S32D00010C48FB891B0A9BB23B737F211248FDF717FC05211048FDF713FC7B681B7819460D48FDF70DFC3B7B19461B
S32D00010C700A48FDF708FC7B7B19460848FDF703FCFF210648FDF7FFFB00BF1437BD46BDE8908300BF000034431C
S32D00010C980080664000B00E4080B582B000AF7860B84B4FF48072DA60B74B4FF480729A64B54B4FF480721A64C1
S32D00010CC0B34B4FF480725A64B14B4FF48072DA60B04B5B69AF4A43F008035361AE4B5B69AD4A43F480235361BD
S32D00010CE8AB4B5B69AA4A43F480335361A84B5B69A74A43F400335361A54B1B68A44A43F008031360A24B5B6908
S32D00010D10A14A43F0080353619E4B1B689D4A43F0080313609A4B4FF480725A62984B4FF480721A62954B4FF446
S32D00010D3880721A61934B4FF480725A61914B4FF480729A618F4B4FF48072DA618D4B4FF480721A638B4B4FF458
S32D00010D6080725A63894B4FF480729A63874B4FF48072DA63854B4FF480721A64834B4FF480725A64814B4FF418
S32D00010D8880729A647F4B4FF48072DA64814B4FF480721A607F4B4FF480729A607D4B4FF48072DA607B4B4FF45B
S32D00010DB080721A61784B5B69774A43F440735361744B5B69734A43F47F2343F0F0035361734B5B69724A43F05D
S32D00010DD81D035361E221786800F0A8FD1D21786800F04AFE0221786800F046FE0421786800F042FEE0217868FD
S32D00010E0000F098FD0121786800F03AFE6420FEF7F7FEE021786800F08DFD0321786800F02FFE0121786800F038
S32D00010E2885FD0120FEF7E8FEE621786800F07EFD0121786800F020FEA021786800F01CFEFF21786800F018FE0A
S32D00010E50B021786800F06EFD1C21786800F010FE0F21786800F00CFE0121786800F008FE3F21786800F004FE18
S32D00010E780021786800F000FEEF21786800F0FCFD0021786800F0F8FDB421786800F04EFD0121786800F0F0FDCE
S32D00010EA09921786800F0ECFD0021786800F0E8FD4521786800F0E4FD0221786800F0E0FD0021786800F0DCFD29
S32D00010EC80021786800F0D8FD0021786800F0D4FDB621786800F02AFD0121786800F0CCFD0921786800F0C8FD2B
S32D00010EF00021786800F0C4FD0E21786800F0C0FD0221786800F0BCFD0021786800F0B8FD0021786800F0B4FD71
S32D00010F18BA21786800F00AFD0F21786800F0ACFD6420FEF769FE3A21786800F0FFFC6021786800F0A1FD2A210F
S32D00010F40786800F0F7FC0021786800F099FD0021786800F095FD0121786800F091FD3F21786800F08DFD2B212F
S32D00010F68786800F0E3FC0021786800F085FD0021786800F081FD0021786800F07DFDEF2178680BE000B004408F
S32D00010F9000A0044080F00F4040F00F4000C00440C0F00F4000F06CFD3621786800F0C2FC0021786800F064FD7D
S32D00010FB8F021786800F0BAFC0421786800F05CFDB821786800F0B2FC0F21786800F054FD0121786800F050FD3E
S32D00010FE0314B1B68304A43F0080313606420FEF707FE3621786800F09DFC0021786800F03FFDF021786800F06C
S32D0001100895FC0421786800F037FD0121786800F0BCF91E226F21786800F082F8AF225621786800F0DBF8002132
S32D00011030786800F00AFA012301221C49786800F02BFA2921786800F075FC6420FEF7D8FDBE21786800F06EFC2A
S32D000110580E21786800F010FDF021786800F00CFD0121786800F008FD0021786800F004FD0021786800F000FD9C
S32D000110800F21786800F0FCFC786800F028FA0121786800F0DAF90021786800F0AFF900BF0837BD4680BD00BFFC
S32D000110A840F00F40B0B8010080B582B000AF78607B680022DA617B6801221A627B680E225A607B681A229A609B
S32D000110D07B6800225A617B6800229A617B684FF4A072DA607B68F0221A617B6800221A70786801F0F9F97B681A
S32D000110F818460837BD4680BD80B582B000AF7860064B1B78002B05D1044B01221A707868FFF7C2FD00BF08378A
S32D00011120BD4680BD601A002080B58AB002AFF860B9607A607E23009362237A68B968F86800F08DFE40F24E73D1
S32D000111483B610023FB61FA693B699A4240DA0023BB61214AFB6913441B781A46BB69934232DAFB6901331C4A05
S32D00011170D35C002B06D1FF23FB75FF23BB75FF237B7512E0FB690133154AD35C012B06D1D423FB750023BB7554
S32D0001119826237B7505E0B523FB75BA23BB75B0237B757B7DBA7DF97DF86800F0C9F80246FB68DA61F86801F005
S32D000111C093F9F86801F0CCF8BB690133BB61C4E7FB690233FB61BAE700BF2037BD4680BD0400002080B58AB0C1
S32D000111E802AFF860B9607A602723009395237A68B968F86800F02FFE40F2E6333B610023FB61FA693B699A427E
S32D0001121040DA0023BB61214AFB6913441B781A46BB69934232DAFB6901331C4AD35C002B06D1FF23FB75FF2355
S32D00011238BB75FF237B7512E0FB690133154AD35C012B06D10023FB750023BB7500237B7505E0D423FB750023C2
S32D00011260BB7526237B757B7DBA7DF97DF86800F06BF80246FB68DA61F86801F035F9F86801F06EF8BB6901332A
S32D00011288BB61C4E7FB690233FB61BAE700BF2037BD4680BD5407002080B485B000AF78600B46FB70FB78062BB9
S32D000112B029D801A252F823F0DD120100D5120100E3120100EB120100F3120100F9120100011301006FF07F43FA
S32D000112D8FB6014E00023FB6011E04FF47F03FB600DE04FF47F43FB6009E0FF23FB6006E04FF41903FB6002E0D4
S32D00011300044BFB6000BFFB6818461437BD4680BC704700BF9999990080B584B000AF786039603B681B0CFB7308
S32D000113283B681B0ABB733B687B737B7BBA7BF97B786800F005F8034618461037BD4680BD80B487B000AF786083
S32D00011350084611461A460346FB700B46BB7013467B70FB789B08DBB27B61BB789B08DBB23B617B789B08DBB254
S32D00011378FB607B691A033B699B011A43FB68134318461C37BD4680BC704780B582B000AF78600B46FB70FB78D0
S32D000113A019467868FFF77CFF03461946786800F004F800BF0837BD4680BD80B582B000AF7860396039687868B4
S32D000113C8FFF7A6FF02467B681A62786801F088F8786800F0E9FB00BF0837BD4680BD80B582B000AF78607868A3
S32D000113F000F0DEFB00BF0837BD4680BD80B582B000AF78600B46FB70FB7819467868FFF747FF034619467868A7
S32D0001141800F004F800BF0837BD4680BD80B582B000AF7860396039687868FFF771FF02467B681A62786801F095
S32D0001144053F800BF0837BD4680BD80B582B000AF78600B46FB70FB7819467868FFF720FF03461946786800F00B
S32D0001146804F800BF0837BD4680BD80B582B000AF7860396039687868FFF74AFF02467B68DA61786801F02CF879
S32D0001149000BF0837BD4680BD80B586B000AFF860B9607A603B6000237B617B69BA6813441B78002B0FD07B6912
S32D000114B8BA6813441B783A687968F86800F00AFE7B680C337B607B6901337B61E9E700BF1837BD4680BD80B5DA
S32D000114E082B000AF7860FCF7ABFE67210120FCF716FE00210220FCF712FEA0210320FCF70EFE50210420FCF727
S32D000115080AFE20210520FCF706FE20210620FCF702FE77210720FCF7FEFD00210820FCF7FAFD00210920FCF7D8
S32D00011530F6FD00210A20FCF7F2FD04210B20FCF7EEFD7B684FF0FF32DA637B684FF0FF321A6400BF0837BD46DC
S32D0001155880BD00000000000080B586B000AFF860B9607A600020FCF7F8FD0346FB75FB7D03F00203002B00F076
S32D00011580CE80FCF70BFEE020FCF7BCFD0220FEF737FBFCF711FE0120FEF732FBFCF7FEFDA520FCF7AFFD012045
S32D000115A8FEF72AFBFCF7D1FD03469BB21B02BB82FCF7CBFD03469AB2BB8A1343BB82FCF7C4FD03469BB21B02BA
S32D000115D07B82FCF7BEFD03469AB27B8A13437B82BB8A1B09BB827B8A1B097B82FCF7E4FDFB68DB6BB3F1FF3F29
S32D000115F834D1FB681B6CB3F1FF3F2FD1BA8AFB68DA637A8AFB681A647B8AC3F57F630F337B82BB8A184602F0B7
S32D000116202BFE49A3D3E9002302F090FE02460B461046194603F06CF90246BB681A607B8A184602F019FE42A34B
S32D00011648D3E9002302F07EFE02460B461046194603F05AF902467B681A605AE0FB68DA6BBB8AD31A1946F8681A
S32D0001167000F074F80346632B0CDCFB681A6C7B8AD31A1946F86800F069F80346632B01DC012300E00023002B3F
S32D000116982FD0BA8AFB68DA637A8AFB681A647B8AC3F57F630F337B82BB8A184602F0E0FD23A3D3E9002302F074
S32D000116C045FE02460B461046194603F021F90246BB681A607B8A184602F0CEFD1CA3D3E9002302F033FE02464F
S32D000116E80B461046194603F00FF902467B681A600FE0BB68164A1A607B68154A1A60FB684FF0FF32DA63FB6812
S32D000117104FF0FF321A64002310E001230EE0BB680D4A1A607B680C4A1A60FB684FF0FF32DA63FB684FF0FF320D
S32D000117381A64002318461837BD4680BDAFF30080144001144001B43F1EE0011EE001AE3F000080BF80B483B0A4
S32D0001176000AF786039603B68002B02DA3B685B423B603B6818460C37BD4680BC704780B584B000AF78603960F2
S32D000117880023FB60786800F0D2FAFB683A6813441B78002B12D07B6859697B689869FB683A6813441B7802465C
S32D000117B0786800F079FC786800F0D1FAFB680133FB60E6E700BF1037BD4680BD80B592B000AF786039604FF04F
S32D000117D80001386803F0A8FB0346002B1FD0386803F0B6FB03467B64786C03F097F903461946386803F0DCF866
S32D0001180003461F49184603F0E1F90346184603F0A3FB03463B6407F10C003B6C7A6C194904F02EFC22E03B6807
S32D0001182883F000433B60386803F092FB03467B64786C03F073F903461946386803F0B8F803460D49184603F0DA
S32D00011850BDF90346184603F07FFB03463B6407F10C003B6C7A6C084904F00AFC07F10C0319467868FFF783FF1D
S32D0001187800BF4837BD4680BD00007A44CCB80100C0B8010080B582B000AF78600B46FB70786800F04CFA7B6864
S32D000118A059697B689A69FB78786800F0FDFB786800F055FA00BF0837BD4680BD80B582B000AF78603960786872
S32D000118C800F035FA39687868FFF755FF786800F019FA00BF0837BD4680BD80B582B000AF78603960786800F08F
S32D000118F022FA39687868FFF769FF786800F006FA00BF0837BD4680BD80B582B000AF78600B46FB70786800F046
S32D000119180EFAFB7819467868FFF7B4FF786800F0F1F900BF0837BD4680BD000080B483B000AF78600B46FB709B
S32D000119404D4B1B684C4A23F0080313604B4B1B684A4A23F480231360484B1B68474A43F480331360454B1B6845
S32D00011968444A23F440731360414B1B68404A23F4435323F0300313603E4B1A68FB785B0203F400733B49134367
S32D000119900B603A4B1A68FB785B101B0203F48073364913430B60344B1A68FB789B101B0103F010033049134381
S32D000119B80B602F4B1A68FB78DB105B0103F020032B4913430B602A4B1A68FB781B119B0103F040032649134367
S32D000119E00B60254B1A68FB785B11DB01DBB2224913430B60204B1A68FB789B111B0303F480531D4913430B60EC
S32D00011A081B4B1A6897F90330DB115BB25B0303F40053174913430B60164B1B68154A23F400331360134B1B6861
S32D00011A30124A43F4003313600F4B1B680E4A43F0080313600D4B1B680C4A43F440731360094B1B68084A43F47A
S32D00011A58435343F030031360064B1B68054A43F48023136000BF0C37BD4680BC704700BF80F00F4040F00F408B
S32D00011A8080B483B000AF78600B46FB70464B1B68454A23F008031360444B1B68434A43F480331360414B1B684E
S32D00011AA8404A43F4802313603E4B1B683D4A23F4407313603A4B1B68394A23F4435323F030031360374B1A6873
S32D00011AD0FB785B0203F40073344913430B60334B1A68FB785B101B0203F480732F4913430B602D4B1A68FB78E4
S32D00011AF89B101B0103F01003294913430B60284B1A68FB78DB105B0103F02003244913430B60234B1A68FB7869
S32D00011B201B119B0103F040031F4913430B601E4B1A68FB785B11DB01DBB21B4913430B60194B1A68FB789B1112
S32D00011B481B0303F48053164913430B60144B1A6897F90330DB115BB25B0303F40053104913430B600F4B1B682A
S32D00011B700E4A23F4003313600C4B1B680B4A43F400331360084B1B68074A43F008031360064B1B68054A23F413
S32D00011B988023136000BF0C37BD4680BC704700BF80F00F4040F00F4080B586B000AF78607B6800225A617B687E
S32D00011BC000229A617B681B6AFB60FB68FB72FB681B0ABB72FB681B0CDBB203F003037B722A217868FFF7A6FECF
S32D00011BE800217868FFF748FF00217868FFF744FF01217868FFF740FF3F217868FFF73CFF2B217868FFF792FEFC
S32D00011C1000217868FFF734FF00217868FFF730FF00217868FFF72CFFEF217868FFF728FF2C217868FFF77EFE87
S32D00011C38314B1B68304A23F4407313602F4B1B682E4A23F47F2323F0F00313602C4B1B682B4A23F01D0313600B
S32D00011C60274B1A687B681B6B254913430B60254B1A687B685B6B234913430B60224B1A687B689B6B204913436A
S32D00011C880B601E4B1B681D4A23F0080313601A4B1B68194A43F48023136000237B617B69EF2B19D800233B6199
S32D00011CB03B69B3F5A07F0FD2114B1B68104A23F4003313600E4B1B680D4A43F4003313603B6901333B61EBE76D
S32D00011CD87B6901337B61E2E7084B1B68074A43F008031360044B1B68034A23F48023136000BF1837BD4680BDAE
S32D00011D0040F00F4080F00F40C0F00F4080B483B000AF78607B689B69002B07DD7B685B695A1C7B685A617B68F5
S32D00011D2800229A6100BF0C37BD4680BC704780B582B000AF78607B685A697B685B689A4205DB7B6800225A61C1
S32D00011D507868FFF72DFF00BF0837BD4680BD80B582B000AF78607B689B695A1C7B689A617B689A697B689B682F
S32D00011D789A4205D17868FFF7C5FF7868FFF7D7FF00BF0837BD4680BD80B586B002AFF860B9607A6001230093E8
S32D00011DA001237A68B968F86800F059F8F86800F0D7FA00BF1037BD4680BD80B485B000AF786039607B681B68F6
S32D00011DC8FB603B681A687B681A603B68FA681A6000BF1437BD4680BC704780B586B002AFF860B9607A603B608E
S32D00011DF0BA683B681A447B68009313467A68B968F86800F0ABF8BA683B68D118BA683B68D0187A68BB69134424
S32D00011E18009303467A68F86800F09CF8BA683B68D1187A68BB69D0187A68BB6913440093BB680246F86800F0B2
S32D00011E408DF87A68BB691A447B680093BB68B968F86800F083F800BF1037BD4680BD80B588B000AFF860B96032
S32D00011E687A603B60FB681B78022B03D0FB681B78032B11D17B68FB61BA6AFB691344013BBB61FB68DA68BB689C
S32D00011E90D31A3B613B683A69D31A01337B610DE0BB68FB613A68FB691344013BBB617B687B61BA6A7B69134418
S32D00011EB8013B3B612A21F868FFF738FDFB691B0ADBB203F00F03DBB21946F868FFF7D4FDFB69DBB21946F8686F
S32D00011EE0FFF7CEFDBB691B0ADBB203F00F03DBB21946F868FFF7C4FDBB69DBB21946F868FFF7BEFD2B21F86867
S32D00011F08FFF714FD7B691B0ADBB203F00F03DBB21946F868FFF7B0FD7B69DBB21946F868FFF7AAFD3B691B0A83
S32D00011F30DBB203F00F03DBB21946F868FFF7A0FD3B69DBB21946F868FFF79AFD2C21F868FFF7F0FC00BF2037EF
S32D00011F58BD4680BD90B58BB000AFF860B9607A603B603A68BB68D31A1946F868FFF7F2FBF861BA6B7B68D31A63
S32D00011F801946F868FFF7EAFBB861BA69FB699A42CCBF01230023FB75FB7D002B0CD03A1D07F10803114618464C
S32D00011FA8FFF707FF3B4607F138011846FFF701FFBA683B689A420CDD3A4607F1080311461846FFF7F6FE3B1D04
S32D00011FD007F138011846FFF7F0FE3A68BB689A4206D1BB687A681946F868FFF7D1FE55E0BA6B7B68D31A1846E6
S32D00011FF802F094FD04463A68BB68D31A184602F08DFD03461946204602F090FE03463B617B68184602F082FD3C
S32D0001202003467B62BB683B623B683A6A9A4235DCFB7D002B14D0786A02F030F94FF00002184B01F0CDFF02464A
S32D000120480B461046194602F017FC03463A6A1946F868FFF799FE13E0786A02F01BF94FF000020E4B01F0B8FF08
S32D0001207002460B461046194602F002FC03461A46396AF868FFF784FE3969786A02F096FC03467B623B6A0133D8
S32D000120983B62C5E72C37BD4690BD00BF0000E03F80B584B000AFF860B9607A60FB707A6813465B0013449B00E9
S32D000120C0991CBA6813461B011344DA1CFB78F86800F004F800BF1037BD4680BD80B58EB002AFF860B9607A60E4
S32D000120E8FB70FB780A2B06D1F868FFF720FEF868FFF708FEF2E0FB787D2B02D8FB781F2B01D82023FB70FB7891
S32D00012110203BFB70112300930C237A68B968F868FFF79DFEFA7813469B0013446F4AD35C3B75FA7813469B0035
S32D00012138134401336B4AD35C7B75FA7813469B0013440233674AD35CBB75FA7813469B0013440333634AD35C48
S32D00012160FB75FA7813469B00134404335F4AD35C3B760023BB62BB6A062B00F3A180F86800F050F9F86800F0D0
S32D00012188B3F8002387F82F3000237B627B6A042B35DC07F114027B6A13441B7803F00103002B14BF012300233E
S32D000121B0FB76FB7E002B11D097F82F3083F00103DBB2002B03D0F86800F0CAF802E0F86800F08EF8F86800F000
S32D000121D88BF80DE097F82F30002B03D0F86800F01DF902E0F86800F07FF8F86800F07CF8FB7E87F82F307B6A6D
S32D0001220001337B62C6E797F82F30002B03D0F86800F008F902E0F86800F06AF8F86800F067F8002387F82F3070
S32D0001222800233B623B6A042B42DC07F114023B6A13441B7803F00103002B14BF01230023BB76BB7E002B11D086
S32D0001225097F82F3083F00103DBB2002B03D0F86800F07EF802E0F86800F042F8F86800F03FF80DE097F82F30DB
S32D00012278002B03D0F86800F0D1F802E0F86800F033F8F86800F030F8BB7E87F82F3007F114023B6A13441B7897
S32D000122A05B08D9B207F114023B6A13440A461A703B6A01333B62B9E7BB6A0133BB625AE7F86800F0AFF8002356
S32D000122C887F82F300123FB61FB69232B06DCF86800F00AF8FB690133FB61F5E73037BD4680BD00BF3C0B002006
S32D000122F080B483B000AF7860174B1B68164A43F480331360154B1B68144A23F008031360114B1B68104A43F4ED
S32D00012318802313600E4B1B680D4A23F4003313600B4B1B680A4A43F400331360094B1B68084A43F008031360AC
S32D00012340054B1B68044A23F48023136000BF0C37BD4680BC704700BF40F00F4080F00F4080B483B000AF78603D
S32D000123682B4B1B682A4A43F480331360294B1B68284A23F008031360254B1B68244A43F480231360224B1B68E4
S32D00012390214A23F440731360204B1B681F4A23F47F2323F0F00313601D4B1B681C4A23F01D031360184B1A6811
S32D000123B87B685B6A164913430B60164B1A687B689B6A144913430B60134B1A687B68DB6A114913430B600E4BC9
S32D000123E01B680D4A23F4003313600B4B1B680A4A43F400331360094B1B68084A43F008031360054B1B68044A32
S32D0001240823F48023136000BF0C37BD4680BC704740F00F4080F00F40C0F00F4080B483B000AF78602B4B1B685C
S32D000124302A4A43F480331360294B1B68284A23F008031360254B1B68244A43F480231360224B1B68214A23F492
S32D0001245840731360204B1B681F4A23F47F2323F0F00313601D4B1B681C4A23F01D031360184B1A687B681B6B61
S32D00012480164913430B60164B1A687B685B6B144913430B60134B1A687B689B6B114913430B600E4B1B680D4A4C
S32D000124A823F4003313600B4B1B680A4A43F400331360094B1B68084A43F008031360054B1B68044A23F4802389
S32D000124D0136000BF0C37BD4680BC704740F00F4080F00F40C0F00F4080B485B000AF78607B681B6AFB60FB681F
S32D000124F8FB72FB681B0ABB72FB681B0CDBB203F003037B727B6800225A627B6800229A627B680022DA627B68B0
S32D0001252000221A637B6800225A637B6800229A637B681A6BFB7A5B0203F400731A437B681A637B681A6BFB7AEB
S32D000125485B101B0203F480731A437B681A637B685A6BFB7A9B101B0103F010031A437B685A637B685A6BFB7A31
S32D00012570DB105B0103F020031A437B685A637B685A6BFB7A1B119B0103F040031A437B685A637B685A6BFB7AAD
S32D000125985B11DB01DBB21A437B685A637B685A6BFB7A9B111B0303F480531A437B685A637B685A6B97F90B3021
S32D000125C0DB115BB25B0303F400531A437B685A637B685A6BBB7A9B0303F480431A437B685A637B685A6BBB7A3F
S32D000125E85B10DB039BB21A437B685A637B685A6BBB7A9B101B0403F480331A437B685A637B685A6BBB7ADB101B
S32D000126105B0403F400331A437B685A637B685A6BBB7A1B119B0403F480231A437B685A637B685A6BBB7A5B118D
S32D00012638DB0403F400231A437B685A637B689A6BBB7A9B1103F001031A437B689A637B689A6B97F90A30DB11E2
S32D000126605BB29B0003F004031A437B689A637B689A6B7B7ADB0003F008031A437B689A637B689A6B7B7A5B1031
S32D000126881B0103F010031A437B689A637B68DB69FB60FB68FB72FB681B0ABB72FB681B0CDBB203F003037B72C0
S32D000126B07B685A6AFB7A5B0203F400731A437B685A627B685A6AFB7A5B101B0203F480731A437B685A627B68AF
S32D000126D89A6AFB7A9B101B0103F010031A437B689A627B689A6AFB7ADB105B0103F020031A437B689A627B6879
S32D000127009A6AFB7A1B119B0103F040031A437B689A627B689A6AFB7A5B11DB01DBB21A437B689A627B689A6AA3
S32D00012728FB7A9B111B0303F480531A437B689A627B689A6A97F90B30DB115BB25B0303F400531A437B689A62AE
S32D000127507B689A6ABB7A9B0303F480431A437B689A627B689A6ABB7A5B10DB039BB21A437B689A627B689A6AD5
S32D00012778BB7A9B101B0403F480331A437B689A627B689A6ABB7ADB105B0403F400331A437B689A627B689A6A9A
S32D000127A0BB7A1B119B0403F480231A437B689A627B689A6ABB7A5B11DB0403F400231A437B689A627B68DA6A50
S32D000127C8BB7A9B1103F001031A437B68DA627B68DA6A97F90A30DB115BB29B0003F004031A437B68DA627B68B0
S32D000127F0DA6A7B7ADB0003F008031A437B68DA627B68DA6A7B7A5B101B0103F010031A437B68DA6200BF1437FD
S32D00012818BD4680BC704780B483B000AF78607B6818460C37BD4680BC704780B584B000AFF860B9607A603B6035
S32D00012840FB682033B968184603F03AFCFB687A681A60FB683A689A60FB68BA691A61FB68FA695A61FB681A68E6
S32D00012868FB681B691A44FB685A60FB689A68FB685B691A44FB68DA60FB683A6A9A61FB687A6ADA61FB6800224F
S32D00012890C3F8E82000BF1037BD4680BDF0B585B002AF78607B689B6919461F48FEF7E1FD7B6819687B689A68E4
S32D000128B87B6818697B685B69009303461848FFF78CFA7B68DB6919461548FEF7CEFD7B6803F120047B681B682A
S32D000128E01D467B681B691E467B682033184603F047FC024613465B0013449B00F31A5B082B4418467B689A68C1
S32D000129087B685B69113BD90F0B445B101344024621460348FEF7BCFD00BF0C37BD46F0BD1C1A002080B584B09B
S32D0001293002AF78607B689B6919461F48FEF799FD7B681B68591C7B689B685A1C7B681B69981E7B685B69023B7F
